:020000040800F2
:10300000603400200D320008153200081732000825
:10301000193200081B3200081D32000800000000B1
:103020000000000000000000000000001F32000847
:103030002132000800000000233200082532000879
:1030400027320008273200082732000827320008FC
:103050002732000827320008E7740008937500083B
:10306000AB750008C3750008DB750008273200083F
:1030700027320008273200082732000827320008CC
:103080002732000827320008993400082732000848
:10309000AFBF00082732000827320008FB75000880
:1030A0002732000805B70008273200082732000839
:1030B00025B7000841B7000861B7000827320008AB
:1030C000273200082732000827320008273200087C
:1030D000273200081BBD000825BD00082FBD0008D1
:1030E00009750008EBA20008273200082732000803
:1030F000273200082732000827320008273200084C
:10310000273200082732000827320008273200083B
:1031100005BD0008273200082732000827320008C2
:10312000273200082732000827320008273200081B
:1031300000F002F800F05AF80AA090E8000C82446F
:103140008344AAF10107DA4501D100F04FF8AFF24C
:10315000090EBAE80F0013F0010F18BFFB1A43F075
:103160000103184708A3000028A300000A444FF0F9
:10317000000C10F8013B13F0070408BF10F8014BD6
:103180001D1108BF10F8015B641E05D010F8016B1B
:10319000641E01F8016BF9D113F0080F1EBF10F87F
:1031A000014BAD1C0C1B09D16D1E58BF01F801CBA2
:1031B000FAD505E014F8016B01F8016B6D1EF9D525
:1031C0009142D6D37047000000230024002500263A
:1031D000103A28BF78C1FBD8520728BF30C148BF7A
:1031E0000B6070471FB51FBD10B510BD00F01DF975
:1031F0001146FFF7F7FF09F04AFE00F03BF903B470
:10320000FFF7F2FF03BC00F03FF9000009488047D8
:1032100009480047FEE7FEE7FEE7FEE7FEE7FEE7B8
:10322000FEE7FEE7FEE7FEE704480549054A064BD0
:1032300070470000A5B6000831310008602A002060
:1032400060340020602C0020602C002040EA010344
:1032500010B59B070FD1042A0DD310C808C9121F3F
:103260009C42F8D020BA19BA884201D9012010BD79
:103270004FF0FF3010BD1AB1D30703D0521C07E046
:10328000002010BD10F8013B11F8014B1B1B07D1AA
:1032900010F8013B11F8014B1B1B01D1921EF1D11B
:1032A000184610BD032A40F2308010F0030C00F0E5
:1032B000158011F8013BBCF1020F624498BF11F870
:1032C00001CB00F8013B38BF11F8013BA2F1040229
:1032D00098BF00F801CB38BF00F8013B11F00303A1
:1032E00000F02580083AC0F0088051F8043B083A05
:1032F00051F804CBA0E80810F5E7121D5CBF51F8A7
:10330000043B40F8043BAFF30080D20724BF11F820
:10331000013B11F801CB48BF11F8012B24BF00F885
:10332000013B00F801CB48BF00F8012B704710B5F6
:10333000203AC0F00B80B1E81850203AA0E81850AD
:10334000B1E81850A0E81850BFF4F5AF5FEA027C6E
:1033500024BFB1E81850A0E8185044BF18C918C0DD
:10336000BDE810405FEA827C24BF51F8043B40F87E
:10337000043B08BF7047D20728BF31F8023B48BF63
:1033800011F8012B28BF20F8023B48BF00F8012BA1
:1033900070474FF000020429C0F0128010F0030CB7
:1033A00000F01B80CCF1040CBCF1020F18BF00F838
:1033B000012BA8BF20F8022BA1EB0C0100F00DB8E7
:1033C0005FEAC17C24BF00F8012B00F8012B48BF45
:1033D00000F8012B70474FF0000200B513469446E9
:1033E0009646203922BFA0E80C50A0E80C50B1F15D
:1033F0002001BFF4F7AF090728BFA0E80C5048BF71
:103400000CC05DF804EB890028BF40F8042B08BF0E
:10341000704748BF20F8022B11F0804F18BF00F80A
:10342000012B7047704770477047754600F028F8C9
:10343000AE4605006946534620F00700854618B0A1
:1034400020B5FFF7F1FEBDE820404FF000064FF039
:1034500000074FF000084FF0000B21F00701AC46C9
:10346000ACE8C009ACE8C009ACE8C009ACE8C009E8
:103470008D4670470446AFF300802046FFF7BFFE3D
:1034800000487047002A002001491820ABBEFEE723
:10349000260002007047000010B500F01BF84FF442
:1034A0000871024800F080F810BD000000240140BF
:1034B0000146102902DB4FF6FF707047014830F8D3
:1034C0001100FAE738060020014800787047000034
:1034D0004000002010B500F01FF810BD70B5044684
:1034E0000D462946204600F04DF900F06DF870BDFC
:1034F00070B50546002400BF09E045FA04F010F05D
:10350000010F02D0204600F0D5F8601CC4B2102C88
:10351000F3DB012070BD000010B5064800F0F0F8A4
:103520000549064A127821F8120000200449087063
:1035300010BD00000024014038060020410000209A
:103540004000002010B50446102C03DA094800782A
:10355000012801D1002010BD204600F011F8012102
:10356000054800F081F90548047001200149087000
:1035700000BFF0E74000002000240140410000208F
:1035800010B50446064800EB0410837B044800EBAA
:103590000410017B0122034800F005F910BD000072
:1035A000440000200024014000220A12D34303609B
:1035B000704721B1826842F00102826003E08268B4
:1035C00022F001028260704700B585B001214802F7
:1035D00006F016FD4FF4804006F0E6FC1D4800F0B2
:1035E0003BF8684600F050F900208DF80500039084
:1035F0004FF4602002900020009001208DF8100010
:1036000000208DF804006946124800F093F84FF44A
:1036100008711048FFF7C8FF01224FF408710D48E8
:1036200000F07CF801210B48FFF7C3FF094800F0C8
:1036300016F900BF074800F067F80028FAD10548DE
:1036400000F01DF900BF034800F050F80028FAD13F
:1036500005B000BD0024014010B504461248844264
:1036600008D10121401506F0DBFC0021601506F0B1
:10367000D7FC17E00D48844208D10121001506F05F
:10368000CFFC0021201506F0CBFC0BE0084884425B
:1036900008D10121C80306F0C3FC00214FF400400B
:1036A00006F0BEFC10BD00000024014000280140CF
:1036B000003C014038B504460B4901EB0411886811
:1036C000012106F09DFC084800EB04100088ADF8CD
:1036D000000000208DF80300034901EB0411486845
:1036E000694604F03CFA38BD440000200146002041
:1036F0008A6812F0040F01D0012000E0002070471A
:103700000146C86C80B27047014600208A6812F0FA
:10371000080F01D0012000E00020704710B5002301
:10372000CBB21AB144681C43446002E044689C4335
:10373000446010BD30B502460020002350680F4C95
:1037400020400D790C6844EA0524204350609068BD
:103750000B4C2040D1E902542C434D7944EA4504F6
:1037600020439060D06A20F470000C7C641EE4B2A8
:10377000234340EA0350D06230BD0000FFFEF0FF5B
:10378000FDF7F1FF38B505460C4612208DF8000014
:103790008DF801508DF8024001208DF80300684635
:1037A00004F0D4FD38BDF0B504460D4600200021DC
:1037B000092D11DDE068A5F10A0606EB460707268C
:1037C00006FA07F18843A5F10A0606EB460603FA56
:1037D00006F10843E0600CE0206905EB4507072689
:1037E00006FA07F1884305EB450603FA06F108439C
:1037F0002061072A0FDA606B561E06EB86071F262C
:1038000006FA07F18843561E06EB860605FA06F10E
:103810000843606322E00D2A0FDA206BD61F06EB07
:1038200086071F2606FA07F18843D61F06EB860691
:1038300005FA06F10843206310E0E06AA2F10D06E4
:1038400006EB86071F2606FA07F18843A2F10D064C
:1038500006EB860605FA06F10843E062F0BD8168D2
:1038600041F008018160704721B1826842F4A002F2
:10387000826003E0826822F4A0028260704781685F
:1038800041F00401816070470021016001714171C4
:103890008160C160012101747047000010B50022F1
:1038A0000949042003F0A4FB4FF41671042003F02F
:1038B00001FC00220549062003F09AFB4FF47A71BF
:1038C000062003F0F7FB10BD813B0008994E00086D
:1038D00010B506F0CDFD04F0FBFC01F0B1FA03F0E9
:1038E0007DFD03F007F801F0CBFA10BD10B53948A3
:1038F0000078BB2806D138480079384988800020F4
:10390000374908703648007805285AD2DFE800F0B9
:10391000031A354858002F480078AA2809D10120F9
:103920002F490870FE202D49888001202D490870FC
:1039300002E000202B49087000220721022004F039
:10394000C3FB42E00621022004F0D8FB012813D17A
:103950002048407850280FDA2348007801280BD1FE
:103960001C4840781D498880888803F017F901F0C9
:1039700035FE02201A49087027E000201949087016
:1039800016488088401C13494978884207D1012293
:103990000721022004F098FB03201149087014E06D
:1039A0000E488088401C0B494978884207D0002285
:1039B0000721022004F088FB04200949087004E074
:1039C00003E000200649087000BF00BF0020064940
:1039D000087010BDD8030020301E0020AE03002068
:1039E0002E0400202D0400201604002010B5012014
:1039F00006F026FB002006F023FB10BD08B50146AB
:103A0000002000900348009000980844009000981F
:103A1000008808BD006C004008B500220092044AEE
:103A20000092009A02440092009A116008BD0000C2
:103A3000006C004070B504460D462946204600F053
:103A40008FFC70BD022800DB70470921C0EB00121B
:103A5000494B1A4451709621C0EB00121A4411715F
:103A60000022C0EB001119444A710222C0EB001180
:103A700019448A710022C0EB00111944CA713F49F0
:103A8000095C91B9C0EB001119440A720F22C0EB16
:103A9000001119444A720022C0EB001119448A72C5
:103AA000C0EB00111944CA7247E03449095C01298E
:103AB00014D10022C0EB00112F4B19440A72F022DE
:103AC000C0EB001119444A720022C0EB00111944E6
:103AD0008A72C0EB00111944CA722EE02749095CB2
:103AE000022913D10F22C0EB0011234B19440A7293
:103AF0000022C0EB001119444A72C0EB00111944B6
:103B00008A72C0EB00111944CA7216E01B49095CA5
:103B1000032912D1F022C0EB0011174B19440A728D
:103B20000022C0EB001119444A72C0EB0011194485
:103B30008A72C0EB00111944CA720022C0EB001156
:103B40000D4B19440A73C0EB001119444A73C0EBC2
:103B5000001119448A730B21C0EB001299540921FA
:103B6000C0EB00121A4491700A21C0EB00121A44F3
:103B7000D17000BF68E70000C41D00206A03002068
:103B800070B50446002500BFF8480078022802DB23
:103B90000020F649087004F0B9F9F549096888422F
:103BA0001AD004F0B3F9F249086008460068B42856
:103BB0000DD008460068B0F5967F08D0084600682A
:103BC0004FF4E161B0FBF1F201FB120020B90121D9
:103BD000E848E64A12788154E44A127802EB42023D
:103BE000E54B1A445178E14A127802EB4202985CA4
:103BF000012204F069FAE14800780D287ED009DC42
:103C00007DD2DFE800F0223446586A87A1B3C5D7D9
:103C1000E9FCFB00142873D008DCA0F10E00062894
:103C2000EED2DFE800F0F2F1F0EFEEEDAA2868D076
:103C300006DC152866D016287ED017285FD18BE2C7
:103C4000BB287AD0FF28F9D105E3C848007800F0F6
:103C5000F9FDAA20C94908700120C9490870C9495D
:103C6000C24A1278885C012103F024FA06E3BF48B7
:103C7000007800F0BBFBAA20C04908700220C049B0
:103C80000870C049B94A1278885C012103F012FA21
:103C9000F4E2B648007800F0DBFBAA20B7490870D0
:103CA0000320B7490870B749B04A1278885C0121EF
:103CB00003F000FAE2E2AD48007800F031FEAA20FD
:103CC000AE4908700420AE490870AE49A74A127880
:103CD000885C012103F0EEF9D0E20021AA48A34A52
:103CE00012788154A148007800F0E2FDAA20A3498F
:103CF00008700520A2490870A24904E0CDE0B9E2AD
:103D0000A7E13BE2BCE1994A1278885C012103F00B
:103D1000D1F9B3E200209C49944A12788854934820
:103D2000007801F051F9AA209449087006209449BE
:103D3000087094498D4A01E0B4E158E21278885C39
:103D4000012103F0B7F999E28848007800F09AFE63
:103D5000AA208A4908700720894908708949834A3E
:103D60001278885C012103F0A5F987E27F4800788A
:103D700000F0C0FEAA208149087008208049087020
:103D800080497A4A1278885C012103F093F975E240
:103D90007648007800F03EFEAA2078490870092095
:103DA000774908707749714A1278885C012103F0DD
:103DB00081F963E26D48007800F092FAAA206F4919
:103DC00008700A206E4908706E49684A1278885C4B
:103DD000012103F06FF951E26448007800F0F4FE2D
:103DE000AA20664908700B206549087065495F4A3A
:103DF0001278885C012103F05DF93FE21DE005E0E7
:103E000005E1D8E09AE087E06FE05CE000205E49E1
:103E1000564A127888545548007800F089FCAA2048
:103E2000564908700C205649087056494F4A127876
:103E3000885C012103F03EF920E2534A4B4B1B788A
:103E4000D15C4A4A127802EBC20303EB02124F4BD9
:103E500003EB420002F0A4FF01280ED14348007892
:103E600000F04AFC012808D1002049493F4A127855
:103E700088540D204149087007E0012144483B4A1D
:103E800012788154FF203D4908703E49374A127824
:103E9000885C012103F00EF9F0E13E48007801282A
:103EA00003D03248007807F0F5FBAA2033490870A8
:103EB0000E203349087033492C4A1278885C01215E
:103EC00003F0F8F8DAE12948007800F063FDAA2051
:103ED0002A4908700F202A4908702A49234A127873
:103EE000885C012103F0E6F8C8E1002026491F4A5A
:103EF000127888541D480078FFF7A4FDAA201F49B6
:103F0000087010201E4908701E49184A1278885CF3
:103F1000142103F0CFF8B1E11448007800F0ACFBB5
:103F2000AA201649087011201549087015490F4A32
:103F30001278885C322103F0BDF89FE1124A0B4BE6
:103F40001B78D15C094A127802EBC20303EB021220
:103F50000E4B03EB420002F023FFE8B90348007860
:103F600006F056FE0020054908701CE0980300206A
:103F7000940300207E030020830300208F03002091
:103F8000900300208903002068030020601D0020AA
:103F900080030020F0030020C148007800F0C2FA3E
:103FA0001220C0490870C049BD4A1278885C0121BE
:103FB00003F080F862E1BD48B9490978405C032804
:103FC00010DD0021B948B64A127881540120B84961
:103FD000B34A127888541320B24908700020B549BA
:103FE00008700CE0B148AE490978405C401CC1B291
:103FF000AE48AB4A127881540E20AA490870AA49EB
:10400000A74A1278885C012103F054F836E1AA48E7
:10401000A3490978405C012809D10021A648A04A9B
:10402000127881549E48007804F0DEF903E09C4841
:10403000007807F01BFBAA209A49087014209F49BA
:1040400008709949964A1278885C012103F032F889
:1040500014E100209A49924A1278885490480078D6
:1040600000F0A2FBAA208F49087015209349087020
:104070008D498B4A1278885C142103F01BF8FDE00F
:104080008748007800F0F8FAAA20864908701620C0
:104090008A4908708449824A1278885C322103F088
:1040A00009F8EBE0864A7E4B1B78D15C7C4A12789B
:1040B00002EBC20303EB0212824B03EB420002F05D
:1040C0006FFE38B97648007806F0A2FD00207549E9
:1040D000087039E07C4872490978405C012808D1B1
:1040E000002179486E4A1278815417206D49087072
:1040F0002AE06B480078754A02EB400102226848CA
:10410000007800F06DFA01207149654A12788854F0
:1041100063480078401C624908700846007802280D
:1041200001DB0020087001216A485D4A1278815441
:1041300067485B490978405C18B900205949087004
:1041400002E00B20574908705749554A1278885C9D
:10415000012102F0AFFF91E05148007800F002FD2C
:10416000AA20504908700020544908704E494C4A12
:104170001278885C322102F09DFF7FE0484A127875
:10418000C2EB0212544B1A445178454A1278C2EBE2
:1041900002121A44101D02F0DBFA0546404800786E
:1041A000C0EB00104C4A1044001D3D4A1278C2EB8F
:1041B0000212494B1A4492788554291238480078E3
:1041C000C0EB00101A461044001D354A1278C2EBAD
:1041D00002121A44D2788154BB2032490870324905
:1041E0002F4A1278885C012102F064FF46E02C4BD4
:1041F0001B78C3EB0313384EF25C294B1B78C3EBDF
:1042000003133344191D264B1B7803EB4303334E32
:104210003344987808F0F8F8002021490978C1EB78
:1042200001112D4A5054254800781E49087008464F
:1042300000780D2807D11C49194A1278885C14218E
:1042400002F038FF06E01849154A1278885C05210B
:1042500002F030FF12E01248007806F0D9FC00208E
:104260001049087010490E4A1278885C0A2102F041
:1042700021FF03E0FF200B49087000BF00BF084A80
:10428000127802EB4202154B1A445178044A127814
:1042900002EB4202985C002203F016FF70BD0000A2
:1042A000980300208F030020890300206A03002068
:1042B0005E030020F00300207E0300209003002016
:1042C00068030020601D00208B0300207403002081
:1042D0008D0300207C030020C41D002083030020E8
:1042E00010B50446022C00DB10BD0420C4EB041101
:1042F0001A4A11444870012300221946184608F052
:104300008DFDC4EB0411154A114408710021C4EB62
:104310000410104441711321C4EB04101044817146
:104320004821C4EB04101044C1710021C4EB0410F7
:1043300010440172C4EB0410104441720620C4EB17
:10434000041150540420C4EB04111144887005205A
:10435000C4EB04111144C87000BFC5E7C41D0020A0
:1043600070B505460C46022C00DB70BD0520C4EB81
:1043700004111D4A114448700223002201210846FD
:1043800008F04CFDC4EB0411174A114408710021D8
:10439000C4EB0410104441711421C4EB0410104408
:1043A0008171290AC4EB04101044C171C4EB0410DC
:1043B000104405720021C4EB041010444172C4EB98
:1043C0000410104481720720C4EB041150540520DE
:1043D000C4EB0411114488700620C4EB041111448D
:1043E000C87000BFC1E70000C41D002010B504461E
:1043F000022C00DB10BD0320C4EB0411134A11444E
:104400004870012300220721184608F007FDC4EB7D
:1044100004110E4A114408710E21C4EB041010441B
:1044200041711021C4EB0410104481710520C4EBCC
:10443000041150540320C4EB04111144887004206B
:10444000C4EB04111144C87000BFD3E7C41D0020A1
:1044500010B50446022C00DB10BD0320C4EB041190
:10446000134A11444870012300220721184608F01E
:10447000D5FCC4EB04110E4A114408710C21C4EBA5
:104480000410104441710821C4EB041010448171E0
:104490000520C4EB041150540320C4EB0411114453
:1044A00088700420C4EB04111144C87000BFD3E726
:1044B000C41D0020022800DB70470421C0EB00125D
:1044C000174B1A4451708121C0EB00121A4411712C
:1044D0000022C0EB001119444A712822C0EB0011E0
:1044E00019448A710022C0EB00111944CA71C0EB53
:1044F000001119440A72C0EB001119444A720621D6
:10450000C0EB001299540421C0EB00121A449170C0
:104510000521C0EB00121A44D17000BFCCE70000A7
:10452000C41D00202DE9F04705460027B9460026A6
:10453000B246B0460024022D01DDBDE8F0872C46CE
:104540002448405D042842D008263EE02148005D12
:104550000AEB800000F0FF0804EBC40000EB04103D
:104560001D4901EB4001701E085C04EBC40101EB26
:104570000411194A02EB4101895D41EA002941F227
:10458000883009FB00F04FF6FF71B0FBF1F7B9B2CC
:10459000404608F0EDFA1148007848B1012002F0D9
:1045A00061FE012804D0002002F05CFE012806D143
:1045B000BAB208EB0410C1B2204608F0C5FB0AF1FC
:1045C000010000F0FF0AB01EC6B2002EBEDC00BF24
:1045D000B3E700006A030020601D0020F003002004
:1045E0002DE9F84F04460F4691460025A8460026BF
:1045F0000020009082468346022C03DA17B1B9F1FD
:10460000020F01DDBDE8F88F04EBC40000EB0410DD
:10461000184901EB400A4FEA4960050E25E0681E83
:104620001AF800601AF8050040EA06263046F1172D
:1046300006EB11710E11304603F046FA07F8080038
:1046400008EB4400C0B2009017F808B04FFA8BF1A5
:10465000009807F0B5F95946009808F029FBA81E04
:10466000C5B208F1010000F0FF08002DD7DC00BF43
:10467000C8E70000601D002010B50446022C00DBD6
:1046800010BD0420C4EB04111A4A114448700123E0
:1046900000221146184608F0C1FBC4EB0411154A6C
:1046A000114408710021C4EB04101044417102212F
:1046B000C4EB0410104481712021C4EB0410104499
:1046C000C1710021C4EB041010440172C4EB04104A
:1046D000104441720620C4EB041150540420C4EB72
:1046E0000411114488700520C4EB04111144C870F2
:1046F00000BFC5E7C41D00200146022901DB0020E0
:10470000704701EBC10000EB0110084A12F81000DD
:1047100048B901EBC10000EB011002EB400040780A
:1047200008B90120ECE70020EAE70000601D002046
:10473000022800DB70470521C0EB0012194B1A4418
:1047400051708921C0EB00121A4411710022C0EB94
:10475000001119444A71C0EB001119448A710A22F0
:10476000C0EB00111944CA710022C0EB00111944BA
:104770000A72C0EB001119444A72C0EB00111944CF
:104780008A720721C0EB001299540521C0EB001278
:104790001A4491700621C0EB00121A44D17000BF78
:1047A000C8E70000C41D0020022800DB7047092173
:1047B000C0EB0012224B1A4451709621C0EB00123C
:1047C0001A4411710022C0EB001119444A710222EF
:1047D000C0EB001119448A710022C0EB001119448A
:1047E000CA71C0EB001119440A72C0EB00111944E0
:1047F0004A720322C0EB001119448A720022C0EBF6
:1048000000111944CA72C0EB001119440A73C0EBBD
:10481000001119444A73C0EB001119448A730B212B
:10482000C0EB001299540921C0EB00121A44917098
:104830000A21C0EB00121A44D17000BFB6E7000095
:10484000C41D002010B50446022C00DB10BD04205E
:10485000C4EB0411154A11444870022300220721B9
:10486000012008F0DBFAC4EB0411104A114408716E
:104870001021C4EB041010444171C4EB0410104427
:1048800081718021C4EB04101044C1710620C4EB77
:10489000041150540420C4EB041111448870052005
:1048A000C4EB04111144C87000BFCFE7C41D002041
:1048B000022800DB70470421C0EB0012174B1A449A
:1048C00051709121C0EB00121A4411710022C0EB0B
:1048D000001119444A712822C0EB001119448A7151
:1048E0000022C0EB00111944CA71C0EB0011194439
:1048F0000A72C0EB001119444A720621C0EB001283
:1049000099540421C0EB00121A4491700521C0EBA8
:1049100000121A44D17000BFCCE70000C41D002073
:1049200010B50446022C00DB10BD0320C4EB0411BB
:10493000174A11444870012300220721184608F045
:104940006DFAC4EB0411124A114408710A21C4EB38
:104950000410104441710021C4EB04101044817113
:10496000C4EB04101044C171C4EB04101044017274
:104970000520C4EB041150540320C4EB041111446E
:1049800088700420C4EB04111144C87000BFCBE749
:10499000C41D002010B50446022C00DB10BD04200D
:1049A000C4EB04111A4A114448700123002219462D
:1049B000184608F033FAC4EB0411154A1144087183
:1049C0000021C4EB0410104441710D21C4EB04100C
:1049D000104481710421C4EB04101044C171002102
:1049E000C4EB041010440172C4EB04101044417273
:1049F0000620C4EB041150540420C4EB04111144EC
:104A000088700520C4EB04111144C87000BFC5E7CD
:104A1000C41D0020022800DB70470421C0EB0012F7
:104A2000174B1A4451709121C0EB00121A441171B6
:104A30000022C0EB001119444A710722C0EB00119B
:104A400019448A710322C0EB00111944CA71002273
:104A5000C0EB001119440A72C0EB001119444A72EC
:104A60000621C0EB001299540421C0EB00121A4435
:104A700091700521C0EB00121A44D17000BFCBE742
:104A8000C41D0020022800DB70470421C0EB001287
:104A9000174B1A4451709121C0EB00121A44117146
:104AA0000022C0EB001119444A713D22C0EB0011F5
:104AB00019448A716022C0EB00111944CA710022A6
:104AC000C0EB001119440A72C0EB001119444A727C
:104AD0000621C0EB001299540421C0EB00121A44C5
:104AE00091700521C0EB00121A44D17000BFCBE7D2
:104AF000C41D0020022800DB70470421C0EB001217
:104B0000174B1A4451709121C0EB00121A441171D5
:104B10000022C0EB001119444A713E22C0EB001183
:104B200019448A714C22C0EB00111944CA71002249
:104B3000C0EB001119440A72C0EB001119444A720B
:104B40000621C0EB001299540421C0EB00121A4454
:104B500091700521C0EB00121A44D17000BFCBE761
:104B6000C41D002010B50446022C00DB10BD03203C
:104B7000C4EB0411134A1144487001230022072199
:104B8000184608F04BF9C4EB04110E4A11440871A1
:104B90000C21C4EB0410104441718021C4EB0410BB
:104BA000104481710520C4EB041150540320C4EB60
:104BB0000411114488700420C4EB04111144C8701E
:104BC00000BFD3E7C41D0020022800DB7047052189
:104BD000C0EB0012194B1A4451709221C0EB001225
:104BE0001A4411710022C0EB001119444A716E225F
:104BF000C0EB001119448A710022C0EB0011194466
:104C0000CA71C0EB001119440A72C0EB00111944BB
:104C10004A72C0EB001119448A720721C0EB0012DE
:104C200099540521C0EB00121A4491700621C0EB83
:104C300000121A44D17000BFC8E70000C41D002054
:104C400008B5654842780178022001F09FFD63486D
:104C50000088C0F3C02008B102F04DFF6049088809
:104C600007F0ACFF5D480088C0F3802018B15A49B6
:104C7000087802F03DFF5948008810F0010F09D074
:104C800003200090544842785648018803230020AE
:104C900006F0CAFF51480088C0F3400048B1042024
:104CA00000904D4842784F4841880423012006F087
:104CB000BBFF4A480088C0F3800048B1052000903F
:104CC00045484278474881880523022006F0ACFF1A
:104CD00042480088C0F3001028B143488278018818
:104CE000002000F0FDF93D4800883C480088C0F3F2
:104CF000401048B101200090374842783B48016895
:104D00000223002007F016FA34480088C0F3801010
:104D100048B101200090304842783448816801232E
:104D2000184607F007FA2D480088C0F3C01048B1B4
:104D300001200090284842782C4801690123022074
:104D400007F0F8F925480088C0F3002048B1012099
:104D5000009021484278254881690323184607F0CE
:104D6000E9F91E4800881D4800881C4800881B4837
:104D700000881A48408819484088C0F3400010B1A4
:104D8000002006F005FA15484088C0F3800010B1F5
:104D9000012006F0FDF911484088C0F3C00010B1B1
:104DA000022006F0F5F90D484088C0F3001038B134
:104DB0000F490888FEF79CFB05210846FEF78EFB8D
:104DC000064840880548408804484088C0F3C01021
:104DD00008B105F099FA08BD080000200400002081
:104DE0001C000020100000200C000020880400207F
:104DF0000A0000200648008820B9012080F31088AE
:104E000000BF00BF02480088401C0149088070476D
:104E10009A01002009480088012802D0074800882C
:104E200030B9002080F3108800BF0449088004E0F6
:104E300002480088401E0149088070479A010020FE
:104E400000B5002100BF06E04FF448600A4A22F88E
:104E50001100481CC1B203F081F88842F4DC002143
:104E600004E04120054A5054481CC1B203F06AF8DE
:104E70008842F6DC00BD00004E1E0020CA03002060
:104E800010B512210348FEF784FA0021092005F02D
:104E900083FF10BD1E1E002070B50446002500BF14
:104EA0003348007820B1012813D002285AD123E0DA
:104EB000FEF70AFB40B92F492F4A1278885CFEF7AB
:104EC00041FB01202A4908701421062002F0F2F863
:104ED0004CE02849284A1278885CFEF7E9FA27490D
:104EE000254A127821F81200022021490870142165
:104EF000062002F0DFF839E020491F4A127831F825
:104F0000120002F0E1FD1E491B4A1278885408463F
:104F100019490978455C18490978091DC8B269B270
:104F200006F04EFD14490978091DC8B2294607F05C
:104F3000BFFE11480078401C0F49087008460078F1
:104F4000042807DB0020087009490870012007F0D9
:104F5000A5FE02E00020064908703C21062002F070
:104F6000A9F803E000200249087000BF00BF70BD2F
:104F7000A1030020D0D20008A2030020E21D0020DF
:104F80006C030020704700000C498988814206D1DB
:104F900000210B4A117001210A4A11700CE00849E6
:104FA0000978642903DB0021064A117004E00449F2
:104FB0000978491C024A117070470000AE030020B6
:104FC000AC030020AA03002010B50446022C00DB2D
:104FD00010BD2046FFF76EFA00BFF9E70146014811
:104FE000704700000064004010B5044600BF084848
:104FF000007803280BDB002005490870054800F005
:105000009FFB054882780188002000F069F810BDF8
:1050100048030020006400400C0000201FB5002061
:105020008DF80A008DF80B0001208DF80C0000208F
:10503000ADF800000C20ADF802000020ADF804002F
:10504000ADF80600ADF8080001208DF80D006846A7
:1050500000F092FB01220221014800F0DEFC1FBD9E
:105060000064004038B500241C49496941F0010042
:10507000012104F0C5FF012020B1012804D002283D
:1050800008D104E0002407E04FF4EA1404E04FF4F0
:10509000EB1401E0002400BF00BF1CB10121204639
:1050A00002F0E6FD0D488089ADF8000048208DF83B
:1050B00003000A490869694602F051FD0748C089A2
:1050C000ADF8000018208DF8030003208DF80200D1
:1050D00002490869694602F042FD38BD24030020F8
:1050E0002DE9F04705468846914600260024154FD5
:1050F000012D02DB0020BDE8F087F3216943124A4D
:1051000002EB41001E22102104F005FF0646002498
:105110000BE0C4EBC40101EB41010C4A02EB81003E
:105120005421FEF758F9601CC4B2012CF1DBFFF7E3
:1051300099FF00F03BF800F00BF8FFF76FFF3046E7
:10514000D9E7000000640040041B0020EC1C002094
:105150000EB50121480604F033FF134800F0F0FAC1
:10516000684600F065FD00208DF8060001208DF8EE
:1051700007008DF8080000208DF809008DF80A005E
:105180008DF80B008DF802008DF803000B208DF8D0
:10519000040002208DF805001020ADF800006946DB
:1051A000014800F043FC0EBD0064004008B54FF418
:1051B000C06003F005F914208DF800000F208DF871
:1051C00001008DF8020001208DF80300684603F00D
:1051D000BDF808BD2DE9F04385B004460027B84668
:1051E000B94600260025012C02DB05B0BDE8F0839E
:1051F00002215A4800F080FB01287DD15848005D0B
:10520000FF2804DA5648005D401C55490855C4EB98
:10521000C40000EB4000534911F82050C4EBC40017
:1052200000EB400001EB80008078002864D16A46E2
:1052300000214A4800F084FC9DF80890B9F1000F65
:1052400003D1009F4FF0000802E0019F4FF00408D7
:10525000C4EBC40000EB4000424901EB8000001D9C
:1052600000EB05100760C4EBC40000EB400001EB4D
:105270008000001D00EB051080F804809DF80A10E6
:10528000C4EBC40000EB4000364A02EB8000001D76
:1052900000EB05104171002610E00DF10B00815D5F
:1052A000C4EBC40000EB40002E4A02EB8000001D5E
:1052B00000EB0510801D8155701CC6B2C4EBC40004
:1052C00000EB4000274901EB8000001D00EB0510BA
:1052D0004079B042E1DCC4EBC40000EB400011F8BF
:1052E0002000401CC0B2C4EBC40101EB41011D4AC7
:1052F00002F82100052800E020E006DB0020C4EBD6
:10530000C40101EB410102F82100C4EBC40000EB31
:105310004000144911F82000C4EBC40101EB410125
:10532000104A02EB81014978884207D10120C4EB81
:10533000C40101EB410102EB8101887002210748A1
:1053400000F0AAF90648005D032802DB002000F007
:1053500021F8204600F060FB00BF46E700640040F3
:1053600018030020EC1C002038B505460C46E06808
:105370000090284694E80E0001F0CCFA94E80F0063
:1053800001F04AF862792B46A11D206803F0A4FEC3
:1053900038BD00007FB50546002400BF00BF14E003
:1053A0006946204600F018F801280CD10948005D34
:1053B000012804DB0748005D401E06490855694680
:1053C0002046FFF7D1FF601CC4B2012CE8DB01F0DE
:1053D00017FD7FBD1803002070B502460023012A87
:1053E00001DB002070BDC2EBC20000EB40002B4C83
:1053F00004EB80004078C2EBC20404EB4404274D68
:1054000015F82440A04208D1C2EBC20000EB4000D6
:105410002C4604EB80008078D8B3C2EBC20000EBCE
:1054200040001E4C04EB8000001DC2EBC20404EBE4
:1054300044041A4D05EB8404647800EB041671CE25
:1054400081E87100C2EBC20000EB4000134C04EB9A
:1054500080004078401CC0B2C2EBC20404EB44049C
:105460000E4D05EB84046070052807DB0020C2EBBD
:10547000C20404EB440405EB840460700020C2EB1A
:10548000C20404EB4404054D05EB8404A070012321
:1054900001E0FFE700231846A4E70000EC1C002011
:1054A000704700002DE9F04186B005460C461646CF
:1054B000244F4FF00008012D03DB002006B0BDE8AB
:1054C000F0812846FFF78AFD0746012D02DA607950
:1054D000082801DD0020F1E716B94FF0000801E0CF
:1054E0004FF0040860798DF80E0008F0FF008DF889
:1054F0000C00206801902068029000208DF80D00BB
:10550000A0798DF80F00E1798DF81010217A8DF8CF
:105510001110617A8DF81210A17A8DF81310E17ACA
:105520008DF81410217B8DF81510617B8DF8161005
:1055300001A9384600F08CFB042801D10020BDE70A
:105540000120BBE70064004070B504460E4600250C
:10555000012C01DB002070BDF3216143044A02EB02
:105560004100314604F0AAFC05462846F3E7000056
:10557000041B002070B586B005460024002600BF3D
:1055800000BF24E0F3216143134A02EB410004F021
:105590008FFCD0B1F32161430F4A02EB410002A915
:1055A00004F0D3FC80B19DF80C2002A92046FFF73F
:1055B00079FF0646304601F057FC059800902046DA
:1055C00002A90EC9FFF76CFF03E0601CC4B2012CF6
:1055D000D8DB00BF06B070BD041B00203EB5002420
:1055E0000020029001900090002502A94FF4C070A5
:1055F00002F0B1F801A94FF4C17002F0ACF86946AD
:105600004FF4C27002F0A7F8BDF80800A0F5B4414D
:105610005A3910D1BDF80400FF280CDABDF800009B
:10562000FF2808DABDF8040015490880BDF800001D
:105630001449088005E00120114908800020114923
:1056400008800220104908700A201049087010498B
:105650000E2002F080F80E480088A0F58061023923
:1056600008D040F202400A490880084601880E200E
:1056700002F014F90749102002F06DF83EBD000059
:105680002C0000202E0000202600002027000020F3
:105690002A00002028000020B1F5007F3AD00FDC5E
:1056A000202928D006DC01291CD004291DD0082976
:1056B00040D11DE0402921D0B1F5807F3AD126E0CC
:1056C000B1F5004F31D006DCB1F5806F25D0B1F5D2
:1056D000006F2FD124E0B1F5803F12D0B1F5003F2B
:1056E00028D111E0154A826025E00822C26022E03C
:1056F0001022C2601FE0082202611CE01022026139
:1057000019E00822426016E01022426013E00422F1
:10571000426010E0042242600DE0042242600AE090
:10572000002282610422426005E00022826104229C
:10573000426000E000BF00BF7047000001010100AF
:1057400010B504460B48844209D10121480604F0F3
:1057500047FC00214FF0007004F042FC08E00121FA
:10576000880604F03DFC00214FF0806004F038FC16
:1057700010BD00000064004010B50021837A0122B2
:1057800002FA03F13D4A126842F001023B4B1A60F3
:105790003A4A1C3212688A43384B1C331A60027B27
:1057A000CAB9364A0C3212688A43344B0C331A6039
:1057B0004288C38842EA0343304A4032847A42F83E
:1057C00034300288838842EA03432C4A4032847A88
:1057D00002EBC4025360027B012A19D1274A0C3222
:1057E00012680A43254B0C331A604288038842EA48
:1057F0000343224A4032847A42F83430C288838894
:1058000042EA03431D4A4032847A02EBC4025360E9
:10581000C27A3AB9194A121D12688A43174B1B1DE6
:105820001A6006E0154A121D12680A43134B1B1D2D
:105830001A60028932B9114A143212688A430F4B36
:1058400014331A600289012A06D10C4A14321268F4
:105850000A430A4B14331A60427B012A06D1074AD5
:105860001C3212680A43054B1C331A60034A126843
:1058700022F00102014B1A6010BD000000660040DA
:1058800010B50246002011F4700F08D09369C1F3DF
:105890001304234201D001202DE000202BE011F061
:1058A000807F08D05368C1F31304234201D0012044
:1058B00021E000201FE011F0006F08D09368C1F3D1
:1058C0001304234201D0012015E0002013E011F061
:1058D000007F08D0D368C1F31304234201D0012014
:1058E00009E0002007E01369C1F31304234201D04B
:1058F000012000E0002010BD70B504460D460026D2
:105900006069284271D0B5F5807F5CD010DC082D2D
:1059100035D006DC012D20D0022D24D0042D72D1EB
:1059200027E0102D31D0202D35D0402D6BD138E01F
:10593000B5F5004F60D009DCB5F5007F49D0B5F56D
:10594000806F4CD0B5F5006F5DD14FE0B5F5803F6D
:105950002DD0B5F5003F56D12FE0A0682D4901F0BC
:10596000F7FA064651E0E068032101F0F1FA064635
:105970004BE0E068082101F0EBFA064645E0E068FC
:10598000102101F0E5FA06463FE02069032101F00D
:10599000DFFA064639E02069082101F0D9FA064607
:1059A00033E02069102101F0D3FA06462DE060684B
:1059B000082101F0CDFA064627E06068102101F0C9
:1059C000C7FA064621E0A069012101F0C1FA0646A6
:1059D0001BE0A069022101F0BBFA064615E0A069B0
:1059E000042101F0B5FA06460FE00FE0A06970212E
:1059F00001F0AEFA064608E06068042101F0A8FA5A
:105A0000064602E0FFE7002600BF00E00026304621
:105A100070BD00000101010070471AB143690B43DA
:105A2000436102E043698B434361704730B50246EE
:105A300000200023146824F002041460146844F069
:105A40000104146000E05B1C546814F0010F03D1E2
:105A5000A3F57F44FF3CF6D1546814F0010F01D147
:105A600000206CE08C79012C04D1146844F080048F
:105A7000146003E0146824F080041460CC79012CD5
:105A800004D1146844F04004146003E0146824F066
:105A9000400414600C7A012C04D1146844F02004F2
:105AA000146003E0146824F0200414604C7A012C84
:105AB00004D1146844F01004146003E0146824F066
:105AC000100414608C7A012C04D1146844F008048A
:105AD000146003E0146824F008041460CC7A012CEC
:105AE00004D1146844F00404146003E0146824F042
:105AF000040414608C78A407CD7844EA05640D7919
:105B000044EA05444D7944EA05540D886D1E2C4342
:105B1000D461146824F001041460002300E05B1CCD
:105B2000546814F0010F03D0A3F57F44FF3CF6D175
:105B3000546814F0010F01D0002000E0012030BDB6
:105B400010B500F5D87303EB01131B6803F00403D1
:105B50001372137A53B900F5D87303EB01131B6862
:105B600040F2FF7404EA5353136009E000F5D87360
:105B700003EB01131B686FF0604404EAD303536026
:105B800000F5D87303EB01131B6803F00203537293
:105B900000F5D87303EB01135B6803F00F039372F6
:105BA00000F5D87303EB01135B681B0AD37400F58F
:105BB000D87303EB01139B68D37200F5D87303EB22
:105BC00001139B681C0A147300F5D87303EB0113CF
:105BD0009B681C0C547300F5D87303EB01139B688E
:105BE0001B0E937300F5D87303EB0113DB68D373BB
:105BF00000F5D87303EB0113DB681C0A147400F57D
:105C0000D87303EB0113DB681C0C547400F5D873D4
:105C100003EB0113DB681B0E937421B9C36843F0D7
:105C20002003C36003E0036943F02003036110BD58
:105C300000218171C171017241728172C1728170E2
:105C4000C17003210171022141710121018070475E
:105C500010B502460020936803F08063B3F1806FB3
:105C600000D110E0936803F00063B3F1006F01D13D
:105C7000012008E0936803F08053B3F1805F01D105
:105C8000022000E00420042874D002F5C07303EB66
:105C900000131B6803F0010402F5C07303EB00134B
:105CA0001C600B7A7BB94B7A0C8843EA445302F5AB
:105CB000C07404EB00142468234302F5C07404EBA1
:105CC0000014236010E00B7A4C6843EAC4034C7A5A
:105CD000234302F5C07404EB00142468234302F547
:105CE000C07404EB001423608B7A03F00F038B72F3
:105CF00002F5C07303EB00135B6823F00F0402F599
:105D0000C07303EB00135C6002F5C07303EB001378
:105D10005B688C7A234302F5C07404EB0014636063
:105D20008B7B1C064B7B44EA03440B7B44EA032336
:105D3000CC7A234302F5C07404EB0014A3608B7C7F
:105D40001C064B7C44EA03440B7C44EA0323CC7BD3
:105D5000234302F5C07404EB0014E36002F5C07342
:105D600003EB00131B6843F0010402F5C07303EB5F
:105D700000131C6010BD000005480078401C044959
:105D8000087008460078FF2801DB01200870704782
:105D9000A80300202DE9FF4100240025002600274C
:105DA0009DF8060000F01F0500BF18E09DF80700F1
:105DB0002044C6B2022000EB44010DF10600415C14
:105DC000032000EB44020DF10600805C01EB002093
:105DD00087B23946304606F013FF601CC4B2AC42AD
:105DE000E4DBBDE8FF81000070B504460E461546B1
:105DF000072C01DAC82D00DB70BD3B48005D002890
:105E00006FD1072C6CD2DFE804F00405121E2A3A89
:105E10004A0065E035480068401C3449086008467F
:105E20000168002005F0E6F82F48055558E02F4896
:105E30004068401C2D49486008464069401C486144
:105E4000294805554CE029488068401C274988604E
:105E500008464069401C48612348055540E02448F5
:105E60008088B0420AD12148C068401C1F49C860E0
:105E700008468069401C88611B48055530E01C4875
:105E80008088B0420AD119480069401C174908614E
:105E900008468069401C88611348055520E0134876
:105EA0004168012005F0A6F810488168022005F03D
:105EB000A1F80E48C168032005F09CF80B48016961
:105EC000042005F097F809484169052005F092F88B
:105ED00006488169062005F08DF80348055500BF86
:105EE00000BF00BF88E7000020040020B823002086
:105EF000AE03002011480078012803D11048007833
:105F0000052803DA0E480078142810DB0D480078C5
:105F1000002803DD00200949087002E0012007493C
:105F200008700020074908700549087004E004481B
:105F30000078401C0249087070470000A903002047
:105F4000AB030020A803002010B588B0884C894816
:105F5000007800283DD106208DF80800864880781A
:105F60008DF80900844800798DF80A00FF208DF82B
:105F70000B0032208DF80C00DDE9020100F0CAFBB5
:105F8000049008208DF81500C3208DF8160000211C
:105F90008DF81710794801788DF818100088010ADB
:105FA0008DF81910754881788DF81A104088010A0B
:105FB0008DF81B1000218DF81C108DF81D1000208D
:105FC00000909DF815300DF116020121049800F0A3
:105FD00046FD6848007801283DD106208DF808006C
:105FE000654880788DF80900634800798DF80A00CB
:105FF000FF208DF80B0032208DF80C00DDE9020146
:1060000000F088FB049008208DF81500C3208DF85F
:10601000160003218DF81710584801798DF81810D3
:106020008088010A8DF81910544881798DF81A106A
:10603000C088010A8DF81B1000218DF81C108DF806
:106040001D10002000909DF815300DF11602012161
:10605000049800F004FD4748007802283DD106204E
:106060008DF80800444880788DF80900424800798E
:106070008DF80A00FF208DF80B0032208DF80C00FF
:10608000DDE9020100F046FB049008208DF81500C0
:10609000C3208DF8160006218DF817103748017AB5
:1060A0008DF818100089010A8DF819103348817A8B
:1060B0008DF81A104089010A8DF81B1000218DF807
:1060C0001C108DF81D10002000909DF815300DF16A
:1060D00016020121049800F0C2FC26480078401CFA
:1060E000244908700846007803283FDB0020087028
:1060F00006208DF80800204880788DF809001E4899
:1061000000798DF80A00FF208DF80B0036208DF8FD
:106110000C00DDE9020100F0FDFA049008208DF882
:106120001500C2208DF8160000218DF817101448B4
:1061300001788DF818100088010A8DF819101048A0
:1061400081788DF81A104088010A8DF81B10002103
:106150008DF81C108DF81D10002000909DF8153052
:106160000DF116020121049800F079FC08B010BD71
:10617000006400401C040020AE030020121E00201A
:10618000C603002010B588B0424C43480078002870
:1061900039D106208DF80800404880788DF8090034
:1061A0003E4800798DF80A00FF208DF80B0035205D
:1061B0008DF80C00DDE9020100F0ACFA0490042037
:1061C0008DF81500C1208DF8160000218DF81710EC
:1061D000334801788DF818100088010A8DF81910DD
:1061E00000218DF81A108DF81B108DF81C108DF8F9
:1061F0001D10002000909DF815300DF116020121B0
:10620000049800F02CFC24480078401C22490870B7
:106210000846007802283BDB0020087006208DF835
:1062200008001E4880788DF809001C4800798DF818
:106230000A00FF208DF80B0034208DF80C00DDE9FA
:10624000020100F067FA049004208DF81500C120C7
:106250008DF8160000218DF81710124801788DF87E
:1062600018100088010A8DF8191000218DF81A10F5
:106270008DF81B108DF81C108DF81D10002000905B
:106280009DF815300DF116020121049800F0E7FB8E
:1062900008B010BD006400401B040020AE030020C5
:1062A000C4030020C203002010B588B000240620DB
:1062B0008DF818001E4880788DF819001C48007968
:1062C0008DF81A00FF208DF81B0057208DF81C0058
:1062D000DDE9060100F01EFA029001F033FE801C99
:1062E000C0B28DF80D0001F02DFE40F0C0008DF819
:1062F0000E0000218DF80F1000BF09E00D48005D71
:106300002838C2B2A01C0DF10E010A54601CC4B2A0
:1063100001F018FEA042F1DC002000909DF80D3045
:106320000DF10E020121029800F099FB08B010BD9A
:10633000AE030020CA03002070B588B000240025F9
:10634000002606208DF81800304880788DF8190056
:106350002E4800798DF81A00FF208DF81B0055207B
:106360008DF81C00DDE9060100F0D4F90290284800
:10637000007800EB4000C6B201F0F0FDB04237DD1E
:1063800001F0ECFD801BC5B2032D00DD03250220CA
:1063900000EB4500C0B28DF80D0045F0C0008DF84F
:1063A0000E008DF80F60002416E03019194911F81D
:1063B0001010022000EB44020DF10E008154301940
:1063C000144931F81000010A032000EB44020DF1DA
:1063D0000E008154601CC4B2AC42E6DB0020009089
:1063E0009DF80D300DF10E020121029800F037FBEF
:1063F00007480078401C06490870084600780B28BA
:1064000001DB0020087008B070BD0000AE03002062
:106410001A0400204E1E00201FB584B00024049CE6
:10642000C4F343608DF80800C4F300608DF80900E0
:10643000200C8DF80A00200A8DF80B00E0B28DF8D0
:106440000C009DF80A00502805DA9DF80A00FEF7B6
:106450009BFD08B010BD9DF80B0015498988884246
:1064600004D09DF80B00FF2800D0F2E79DF808004B
:10647000012804D0022805D0082815D10BE0FFF729
:106480007BFC11E0DDE90601CDE9000102A80FC89F
:1064900004F084FA08E0DDE90601CDE9000102A874
:1064A0000FC804F003FB00BF00BF00BFD1E700002E
:1064B000AE0300200FB59DF80500042800D00FBDE5
:1064C0009DF80800044908709DF8090048700120F3
:1064D0000249087000BFF2E7D8030020160400202C
:1064E0007FB50024002600259DF8060000F01F0659
:1064F0009DF8075000BF1BE0022000EB44010DF1A6
:106500000600415C032000EB44020DF10600805CB4
:1065100001EB00202919084A22F811002A19064B1C
:1065200033F812102A19D0B204F036FC601CC4B241
:10653000B442E1DB7FBD00001E1E00207FB50026B7
:10654000002400259DF8060000F01F049DF8075068
:106550009DB9012C11D19DF80800FF280DD1122101
:106560000648FCF716FF0021092004F015FC002066
:1065700005F090F8012005F08DF87FBD1E1E00206B
:106580001FB59DE80F00FFF705FC1FBD7FB500207C
:106590000021002200239DF8064004F01F0200BFE6
:1065A00017E09DF807400444E1B2022404EB4005E3
:1065B0000DF10604655D032404EB40060DF10604AD
:1065C000A45D05EB0424A3B2034C24F81130441C51
:1065D000E0B29042E5DB7FBDD40300207FB500240C
:1065E000002500269DF808409DF809509DF80A6096
:1065F000324629462046FFF7F7FB7FBD2DE9F041E3
:1066000005460E4617460024A04600BF0CE0281998
:1066100000F0FF0807EB44014FF4C07202EB4800A2
:1066200001F099F8601CC4B2B442F0DBBDE8F0811F
:1066300010B508480088401C0649088008460088B4
:10664000642801DB002008800248008800F004F87C
:1066500010BD00001804002010B504462B48007837
:10666000012803D1C8202A49087010BD28480078A5
:10667000C82805DA26480078401C25490870F4E748
:10668000642094FBF0F100FB114084B2252C29D04A
:1066900010DC112C22D006DC022C1CD0072C1BD0C5
:1066A0000C2C2FD119E0162C19D01B2C18D0202C13
:1066B00028D116E0392C19D006DC2A2C13D02F2C27
:1066C00012D0342C1ED110E03F2C12D04A2C13D003
:1066D000552C17D113E000BF00BF00BF00BF00BFA3
:1066E00000BF00BF00BF00BF00BF00BFFFF724FE18
:1066F00009E0FFF7D9FD06E0FFF744FD03E0FFF7EF
:1067000023FC00E000BF00BF00BFAEE72D04002067
:106710001D040020F3B500200021002200230024E6
:1067200000259DF800109DF801209DF802309DF88D
:1067300003409DF804500E07F60802F0010746EAF0
:10674000076646EA034646EA042646EA0500FCBD1B
:1067500030B502460B46002011E012F8014B6040B4
:1067600000210AE010F0010F02D04AF2010400E01B
:10677000002484EA60004C1CA1B20829F2DB1C0052
:10678000A3F10105ABB2E8D130BD00002DE9FC5FFB
:1067900081468A4615464FF48030019000200090D3
:1067A00083460126012702248046B9F1010F20D13A
:1067B000382D01DDBDE8FC9F02240EE00AFB04F049
:1067C00000EBD071B5EB610F05D12D4850F824B026
:1067D0004FF0010803E0601CC4B2102CEEDD00BFD6
:1067E000B8F1000F01D10020E4E7584601F0FEFBAC
:1067F00044E0B9F1020F40D1482D01DD0020D9E776
:1068000001272CE0012621E0022416E00AFB04F017
:1068100090FBF6F090FBF7F0A8420CD1194850F825
:10682000260001901848C05D0090154850F824B02B
:106830004FF0010803E0601CC4B2102CE6DD00BF7D
:10684000B8F1010F00D103E0701CC6B2022EDBDDEF
:1068500000BFB8F1010F00D103E0781CC7B2022FCE
:10686000D0DD00BFB8F1000F01D10020A2E75A46E9
:10687000DDE9001001F078FB00E000BF012099E79E
:1068800054010020480100204401002030B5024698
:106890000B460021002000BF0AE0545C84EA20245B
:1068A000054D35F8144084EA0024A0B24C1CE1B236
:1068B0009942F2DB30BD00009CD00008002000BFF0
:1068C0000AE00749095C002904DD0549095C491E05
:1068D000034A1154411CC8B20728F2DB704700007C
:1068E0002004002002480068401C014908607047ED
:1068F0003004002010B50548408805494880034809
:1069000080888880FEF76AFE10BD0000301E0020DF
:10691000AE0300200FB42DE9F84F074600240025F0
:10692000A046A146A246A34600260B9EC6F3072416
:10693000F5B2C6F30748C6F30269B9F1000F03D1F7
:10694000BDE8F80F5DF814FB32480088844203D19B
:106950003148008885420AD0FF2C01D1FF2D06D096
:106960002C480088844201D1FF2D00D0E8E7B8F11F
:10697000E00F03D0B8F1E60F47D110E09DF832A048
:106980009DF833B0BAF1010F00D0D9E723460DF1DD
:10699000320259463846009501F056FB36E01E4853
:1069A00000881C49098840EA012040F466000B90E9
:1069B00003208DF832000BA8C771184801780BA886
:1069C0000172174801780BA84172164801780BA88C
:1069D000817214480088010A0BA8C172124801781C
:1069E0000BA8017310480088010A0BA84173082006
:1069F0008DF83100002000909DF831300DF1320209
:106A000004210B9800F02BF800E000BF00BF00BF8E
:106A100096E700002C0000202E0000202600002019
:106A200027000020280000202A00002010B50024A4
:106A300001F07EF90446002C08DD0121082000F059
:106A40002DFC0121082000F037FC07E00021082080
:106A500000F024FC0021082000F02EFC10BD2DE9E0
:106A6000FF4706460F4690461D46DDF8309000244D
:106A700000968DF804708DF8055000BF06E018F8F8
:106A800004100DF106000155601CC4B2AC42F6DBE7
:106A900069464846FEF758FD012004B0BDE8F0877E
:106AA00010B50446012C06DC0348C48121464FF48E
:106AB000C77000F0F3FE10BD301E002010B5044674
:106AC0000348848121464FF4C67000F0E7FE10BDF4
:106AD000301E002010B504460348448221464FF47E
:106AE000C97000F0DBFE10BD301E002010B504465A
:106AF000B4F5FA6F0ADB41F28830844206DC0448C0
:106B0000848221464FF4CA7000F0C8FE10BD000018
:106B1000301E002010B50446B4F5FA7F09DBB4F549
:106B20007A6F06DC0348C48221464FF4CB7000F034
:106B3000B5FE10BD301E002010B504460348048386
:106B400021464FF4CC7000F0A9FE10BD301E00208D
:106B500010B50446B4F5FA6F0ADB41F2883084427E
:106B600006DC0448448321464FF4CD7000F096FEC5
:106B700010BD0000301E002010B50446B4F57A7F29
:106B800009DBB4F57A6F06DC0348848321464FF4B1
:106B9000CE7000F083FE10BD301E002010B50446FC
:106BA0004F2C06DC0348848021464FF4C27000F06D
:106BB00075FE10BD301E002010B504460348048049
:106BC00021464FF4C07000F069FE10BD301E002059
:106BD00010B50446012C06DC0348448021464FF4DE
:106BE000C17000F05BFE10BD301E002010B50446E1
:106BF0000348C48021464FF4C37000F04FFE10BD1F
:106C0000301E002010B50446002C08DD082C06DCE0
:106C10000348448121464FF4C57000F03FFE10BD8B
:106C2000301E002010B5044640F6B830844206DC21
:106C30000348048221464FF4C87000F02FFE10BDB7
:106C4000301E002010B50446002C08DD202C06DC88
:106C50000348048121464FF4C47000F01FFE10BDAC
:106C6000301E002070B5002400250020044689E075
:106C700000253BE005EB0410444931F81010681C76
:106C800000EB0410414A32F8100081420BDD05EBA5
:106C90000410114631F81010681C00EB041032F893
:106CA0001000081A0BE0681C00EB0410374931F89B
:106CB000100005EB0411354A32F81110401AB0F5F6
:106CC000FA7F0EDD3248405D401C31494855084688
:106CD000405D032808DD0020485501202D49085556
:106CE00002E000202A494855681CC5B201F036F977
:106CF000401E05EB0411884201DD0F2DBADB002593
:106D000034E005EB440024490956681C00EB4400BC
:106D1000214A1056814209DD05EB4400114609560F
:106D2000681C00EB44001056081A09E0681C00EBD0
:106D300044001949085605EB4401174A5156401AB8
:106D400014280EDD1548405D401C1449485508467E
:106D5000405D032808DD0020485501200D490855F5
:106D600002E000200D494855681CC5B201F0EAF860
:106D7000401E05EB4401884201DD012DC1DB601C92
:106D8000C0B20446022CFFF673AF70BD4E1E002049
:106D9000F21D00208B030020CA030020990300206D
:106DA0002DE9F04385B005460C4614216846FCF7F2
:106DB00012FB00270026B046B1462878001D00F0DF
:106DC000FF094C4503D0002005B0BDE8F083224602
:106DD00029466846FCF766FA601E2E5CA01E285CF9
:106DE00040EA0626A01EC7B239466846FFF7B0FC47
:106DF0008046B04501D00020E6E70120E4E700002E
:106E000010B5002415480068040E14480C380068BA
:106E100010F0100F07D111480838006810F0100F5B
:106E200001D1102C05DB0E480078401C0C4908707D
:106E30000BE00C4909481838FEF722FD012804D15F
:106E400007480078401C0649087005480078032868
:106E500002DB03200249087010BD000018640040E6
:106E6000480300207000F03070B504460025344817
:106E70000068C0F307452CB932480078401C3149FE
:106E8000087054E030492E481838FEF7F9FC012804
:106E900005D12C480078401C2A49087047E02B494E
:106EA00027481838FEF7ECFC012805D12548007862
:106EB000401C244908703AE021481038006810F05E
:106EC000080F0BD11E481038006810F4006F05D170
:106ED0001B481038006810F4002F05D019480078BE
:106EE000401C1849087022E015481038006810F05E
:106EF000040F0BD112481038006810F4806F05D1D0
:106F00000F481038006810F4802F05D00D48007825
:106F1000401C0C4908700AE0102D05DB0948007878
:106F2000401C0849087002E0002006490870054826
:106F30000078032802DB03200249087070BD0000BE
:106F400018640040480300207000F0300100F01089
:106F5000024600200A4201D0012000E000207047D4
:106F60002DE9F34100BF00244FF4FC6600250BE03F
:106F700004F26D1084B2304605F06FFF05460DB186
:106F8000601C84B2701C86B29DF80500B042EFDC34
:106F90009DF8050005F061FF054605EB850000EB57
:106FA000C500124901EB40019DF80400401E31F874
:106FB000100004449DF80300401E204484B29DF854
:106FC00002004FF4616148439DF80110C1EB0111CB
:106FD00000EB81009DF80010471840F2A3206043A9
:106FE00007EBC0173846BDE8FC8100009CD20008C2
:106FF0002DE9F04104460E461746192C08DAFDF734
:10700000F9FE044800EB0415AE60EF60FDF702FFE7
:10701000BDE8F081A80400200022084B1A6008484F
:10702000002108E000220270521E426000224270DD
:1070300010304A1CD1B21929F4DB7047300000200F
:10704000A8040020184A1268521C174B1A601748EF
:107050001A461268164B9A4213D3002109E042687F
:10706000521C03D0124B4268D21A426010304A1CA4
:10707000D1B21929F3DB0C4A12680D4BD21A0A4B14
:107080001A600A4800210CE00278012A06D1064B5A
:1070900042681B689A4201D80122427010304A1C93
:1070A000D1B21929F0DB704730000020A80400207D
:1070B0007011C9FF70B505460E46192D11DA094841
:1070C00000EB0514FDF796FE074800683044606049
:1070D000012020700EB9607001E000206070FDF7A3
:1070E00099FE70BDA8040020300000202DE9F04773
:1070F00081460027B8461F4C1F480068401C1E49A7
:107100000860FDF777FE00262EE06078012828D180
:107110002078012825D11949606809680D1A184896
:107120000068854201D916480560A768D4F80C802C
:107130004FF0FF30606002202070002060702FB19F
:10714000FDF768FE4046B847FDF754FE6068401CF6
:1071500001D1207001E001202070FDF75BFEBDE849
:10716000F0871034701CC6B2192ECEDBFDF752FE2C
:1071700000BFF4E7A8040020340000203000002005
:107180003800002010B5014600220023172901DB3A
:10719000012010BD172901DD0120FAE74A0901F09D
:1071A0001F04012000FA04F3094850F82200184295
:1071B0000BD008480068401E064C2060044850F878
:1071C00022009843024C44F822000020E1E700002E
:1071D000100400200C04002010B5014600220023FA
:1071E000172901DB012010BD172901DD0120FAE775
:1071F0004A0901F01F04012000FA04F3094850F87D
:10720000220018420BD108480068401C064C206040
:10721000044850F822001843024C44F82200002091
:10722000E1E70000100400200C04002030B5044603
:107230000D460021172C10DA094800EB04118D705F
:107240004D703220B2FBF0F048603220B3FBF0F01A
:1072500088600020C860012030BD0020FCE70000ED
:10726000102200200146172901DB042070470A483C
:1072700000EB01108078022801D10020F6E70648D3
:1072800000EB01108078032801D10120EEE70248CD
:1072900000EB01108078E9E7102200200246172A4F
:1072A00005DA044B03EB02135970012070470020EC
:1072B000FCE70000102200200246172A05DA044BE2
:1072C00003EB02139970012070470020FCE70000D7
:1072D000102200200146172905DA0120034A02EB9B
:1072E0000112107070470020FCE7000010220020FF
:1072F0000020002100BF06E0044A02EB001100223A
:107300000A70CA60401C1728F6D37047102200206C
:10731000F0B502460B460024002500210120172B62
:1073200001DD17230020172A01DD172200209A42D1
:1073300003DD15461A462B460020144648E0264E2B
:1073400006EB04110E78012E40D18E7836B1012E55
:1073500020D0022E0AD0032E36D122E04E78012E04
:1073600003D102268E700026CE602EE04E78012ECC
:107370000AD1CE68761CCE604F68CE68BE4203D973
:1073800001268E700026CE604E7816B900268E70CB
:10739000CE601AE04E781EB903268E700026CE60AD
:1073A00013E04E784EB9CE68761CCE60D1E90276F5
:1073B000BE4202D900268E70CE604E78012E02D1D8
:1073C0008E700026CE6000E000BF00BF661CF4B2E5
:1073D0009C42B4DBF0BD00001022002010B5FFF786
:1073E00087FF00F04DF842F210735A100021084652
:1073F000FFF71CFF0020FFF76DFF42F210735A10D9
:1074000000210120FFF712FF0120FFF763FF42F286
:1074100010735A1000210220FFF708FF0220FFF727
:1074200059FF42F210731A4600210820FFF7FEFEB2
:107430000820FFF74FFF42F2107340F6B8320021E8
:107440001620FFF7F3FE1620FFF744FF10BD10B51E
:10745000FDF7D0FC4FF440514FF0006000F0BAFF50
:10746000FDF790FD03F07EF9FDF7EAFB00F000FF69
:10747000FDF7D0FCFCF72CFA01F0E0FB10BD00009A
:10748000002000BF05E00021054A42F82010411C01
:10749000C8B20128F7DB0021024A116070470000E2
:1074A000100400200C04002070B504460D46002690
:1074B000172C03DC172D01DCAC4200DD70BD264625
:1074C0000DE03046FFF7CEFE012803D13046FFF72E
:1074D00083FE02E03046FFF755FE701CC6B2AE4296
:1074E000EFDB00BFEAE710B5062000F0C1F820B1DD
:1074F00000F004F8062000F0B5F810BD70477047A2
:10750000704770477047704710B54FF4806000F0C7
:10751000AFF828B1FFF7F3FF4FF4806000F0A2F856
:107520004FF4006000F0A4F828B1FFF7E9FF4FF432
:10753000006000F097F84FF4805000F099F828B1FF
:10754000FFF7DFFF4FF4805000F08CF84FF400504D
:1075500000F08EF828B1FFF7D5FF4FF4005000F08F
:1075600081F84FF4804000F083F828B1FFF7CBFF9B
:107570004FF4804000F076F84FF4004000F078F8C7
:1075800028B100F005F84FF4004000F06BF810BD92
:10759000704710B5022000F06BF820B100F004F83D
:1075A000022000F05FF810BD704710B5042000F015
:1075B0005FF820B100F004F8042000F053F810BD8B
:1075C000704710B5082000F053F820B100F004F81F
:1075D000082000F047F810BD704710B5102000F0EB
:1075E00047F820B100F004F8102000F03BF810BD7F
:1075F0007047704770477047704710B5202000F003
:1076000037F820B1FFF7F5FF202000F02BF84020DD
:1076100000F02EF820B1FFF7EDFF402000F022F837
:10762000802000F025F820B1FFF7E5FF802000F072
:1076300019F84FF4807000F01BF828B1FFF7DCFF59
:107640004FF4807000F00EF84FF4007000F010F866
:1076500028B100F005F84FF4007000F003F810BDF9
:1076600070470000014908607047000014040140A1
:10767000014600200022074B1B6803EA0102054B6C
:1076800014331B680B4202D00AB1012000E0002035
:107690007047000000040140002123498279002A3C
:1076A0003AD00A46126803689A430B461A600A1DCC
:1076B000126803689A430B1D1A60027911440A6824
:1076C00003681A430A60184A0832126803689A432A
:1076D000154B08331A601A1D126803689A43124B3F
:1076E0000C331A604279102A0ED11A1F12680368EF
:1076F0001A430D4B08331A601A1D126803681A43A7
:10770000094B0C331A600DE00749427911440A68AD
:1077100003681A430A6005E0027911440A680368A5
:107720009A430A60704700000004014010B500242D
:1077300000F010FB0446002C08DD01211620FFF7A5
:10774000ADFD01211620FFF7B7FD03E00021162053
:10775000FFF7A4FD10BDFEB504460D4600200290C3
:1077600000264FF6FF70844201D30020FEBD0DB904
:107770000020FBE7022002A9A2B20346CDE90010D7
:107780005021002003F06AFD9DF808609DF8090073
:1077900040EA06262E800120E8E72DE9FE4F074645
:1077A0000D4690464FF0000B002002903C46BA4632
:1077B0004646814600BF00BF00BF0DB9BDE8FE8F41
:1077C0000AEB08004FF6FF71884201DB0020F5E765
:1077D00031E04FEAD41B4FF6FF7000EACB10029065
:1077E000A11902988030814216DD02988030001B7A
:1077F0001FFA80F909F0FF00022322465021CDE94B
:107800000050002003F02AFD04EB090084B2A6EB2F
:10781000090086B24D440EE0F0B202232246502108
:10782000CDE90050002003F019FDA01984B2B01B6F
:1078300086B2354403E00AEB0800A042C9DC00BF71
:107840000120BBE7FEB504460D460020029000264D
:107850004FF6FF70844201D30020FEBD0DB9002019
:10786000FBE7042002A9A2B20223CDE900105021B7
:10787000002003F0F3FC9DF8080000069DF80910B5
:1078800040EA01409DF80A1040EA01209DF80B10E3
:1078900040EA01062E600120DFE700002DE9FF41EC
:1078A00004460D46002003900290002600274FF664
:1078B000FF70844203D3002004B0BDE8F081280AA1
:1078C0008DF80C00E8B28DF80D0026E0022003A927
:1078D000A2B20346CDE900105021002003F0D8FDEC
:1078E00000201049088000BF0E4800880A28FBDBF2
:1078F000022002A9A2B20346CDE9001050210020C7
:1079000003F0ACFC022202A903A8FBF79FFC08B914
:10791000012704E0701CC6B20027052ED6DB00BF8D
:107920003846C9E7020000202DE9F04FC3B0814678
:107930000D461746802123A8FBF74DFD802103A8A3
:10794000FBF749FD4FF0000AD3464C46CDF80890AE
:107950003E46D0461DB9002043B0BDE8F08F0298E6
:1079600038444FF6FF71884201DA802F01DD002094
:10797000F2E73A46294623A8FBF794FC36E04FEAA3
:10798000D41A4FF6FF7000EACA1B00202549088070
:1079900000BF244800880A28FBDBA1190BF18000F6
:1079A000814214DD001B1FFA80F808F0FF0002235B
:1079B00022465021CDE90050002003F069FD04EB80
:1079C000080084B2A6EB080086B245440EE0F0B28F
:1079D000022322465021CDE90050002003F058FD3B
:1079E000A01984B2B01B86B2354403E00298384433
:1079F000A042C4DC00BF00200A49088000BF09483B
:107A000000880A28FBDB3A4603A94846FFF7C5FE73
:107A10003A4603A923A8FBF719FC08B100209BE70D
:107A2000012099E7020000202DE9FF4105460C46A0
:107A3000002003900290002600274FF6FF70854239
:107A400003D3002004B0BDE8F081200E8DF80C00B7
:107A5000200C8DF80D00200A8DF80E00E0B28DF894
:107A60000F0026E0042003A9AAB20223CDE90010EA
:107A70005021002003F00CFD00201049088000BFB9
:107A80000E4800880A28FBDB042002A9AAB20223C0
:107A9000CDE900105021002003F0E0FB042202A9F0
:107AA00003A8FBF7D3FB08B9012704E0701CC6B29A
:107AB0000027052ED6DB00BF3846C3E702000020B2
:107AC00010B500F0BBFB10BD0246002100BF08E06E
:107AD000064830F81100904201DC08467047481C07
:107AE000C1B28D29F4DB8D20F8E70000D8D2000860
:107AF00001460120704710B501220721042000F043
:107B000031FB00220721042000F0DEFA01220921C6
:107B1000042000F027FB00220921042000F0D4FA01
:107B200001220F21032000F01DFB00220F21032062
:107B300000F0CAFA01220721022000F013FB002204
:107B40000721022000F0C0FA00220E21032000F0DD
:107B500009FB00220621022000F004FB10BD2DE9E4
:107B6000F0410246002500260020002300240027C3
:107B700091F803C00CF00F0591F803C01CF0100F32
:107B800003D091F802C04CEA050591F800C0BCF1A1
:107B9000000F31D0146800202BE04FF0010C0CFADC
:107BA00000F3B1F800C00CEA03069E4220D1830026
:107BB0004FF00F0C0CFA03F7BC4305FA03FC4CEA38
:107BC000040491F803C0BCF1280F06D14FF0010C5A
:107BD0000CFA00FCC2F814C00AE091F803C0BCF132
:107BE000480F05D14FF0010C0CFA00FCC2F810C090
:107BF000401C0828D1D31460B1F800C0BCF1FF0FBD
:107C000034DD546800202EE000F1080C4FF001082C
:107C100008FA0CF3B1F800C00CEA03069E4221D129
:107C200083004FF00F0C0CFA03F7BC4305FA03FC7A
:107C30004CEA040491F803C0BCF1280F05D100F10F
:107C4000080C08FA0CF8C2F8148091F803C0BCF1D3
:107C5000480F07D100F1080C4FF0010808FA0CF8A2
:107C6000C2F81080401C0828CED35460BDE8F081D3
:107C7000F0B50A46002300240021002500F000464C
:107C8000B6F1004F02D11D4EF16901E01B4E716843
:107C9000C0F3034583B200F44016B6F5401F08D187
:107CA00021F07061154E766826F07066134F7E6085
:107CB00012E000F48016B6F5801F06D1032606FAFE
:107CC00005F4A14341F0706106E0460D360103FA68
:107CD00006F6B14341F0706122B1460D360103FA58
:107CE00006F6314300F00046B6F1004F02D1034ED4
:107CF000F16101E0014E7160F0BD00000000014043
:107D00000246002093680B4201D0012000E00020D1
:107D1000704702460020D3680B4201D0012000E0EA
:107D2000002070470AB1016100E041617047000026
:107D30000148007870470000A9030020014601298E
:107D400001DB00207047024850F82100FAE70000EC
:107D5000100400200148007870470000AA030020AA
:107D600010B501460020002201230A4601E05B0015
:107D7000521E002AFBD1980010BD014601200122AD
:107D80008A4090B2704700000146054A0023082946
:107D900001DB104670478B0201481A181046F9E7BC
:107DA0000008014008480078012803D006484078C0
:107DB000012803D101200549087002E00020034991
:107DC000087002480078704780030020820300207A
:107DD00070B50446002524B1012C08D0022C12D124
:107DE0000BE00B21012000F089F905460CE00B2186
:107DF000012000F083F9054606E00B21012000F088
:107E00007DF9054600E000BF00BF284670BD0000B8
:107E10002DE9FC4704460D46002000900190002704
:107E20008146002680468246072C00DA15B9304686
:107E3000BDE8FC87D5F800A015E008F1010000F0CE
:107E4000FF084FF47A7101EBC40008226946FFF77E
:107E5000A4FC06463EB900202A49088000BF2948F4
:107E600000880A28FBDB16B9B8F1050FE5DD012E05
:107E700044D19DF806009DF8071040EA012706212D
:107E80006846FEF703FD81464F4522D19DF8030069
:107E90009DF8021040EA01209DF8011040EA0140DF
:107EA0009DF8001040EA0160174941F834000120B4
:107EB00001EBC40108719DF80500134901EBC401F1
:107EC0004871114800EBC400C7800F4850F834A037
:107ED00014E00D4800EBC4004079401C0A4901EB56
:107EE000C4014871084800EBC4004079FA2804DD59
:107EF000FA20054901EBC40148710026C5F800A02D
:107F0000304695E7020000208023002001480068E9
:107F1000704700003004002005480088002803DC7A
:107F200004480088002801DD012070470020FCE79C
:107F3000D4030020C60300200148008870470000D9
:107F4000A60300200148807A70470000301E002000
:107F50000148008870470000A40300200148007A0F
:107F600070470000301E002070B506460C461546CE
:107F700002F06CF84FF4803002F02AF900BF312093
:107F800002F0F4F80028FAD02946304602F084F9CD
:107F9000012C06D11448406840F400301249486072
:107FA00005E01148406820F400300F494860002087
:107FB00002F002F94FF4806002F050F9002002F064
:107FC00059F9012002F062F900BF392002F0CEF821
:107FD0000028FAD0022002F07BF900BF02F0E4F89A
:107FE0000828FBD170BD00000010024010B5044607
:107FF00002F02CF8012002F011F900BF212002F05C
:10800000B5F80028FAD02146002002F045F90020FA
:1080100002F0D2F8002002F021F94FF4806002F063
:1080200029F9012002F032F900BF392002F09EF850
:108030000028FAD0022002F04BF900BF02F0B4F899
:108040000828FBD110BD00002DE9F04180460D4607
:1080500014461E46069F012D04D0022D23D0052D67
:108060002AD122E01648008886421BD11548008894
:10807000874217D1E0781249088020791149088099
:1080800045F65A214FF4C070FFF708FC0C480188F0
:108090004FF4C170FFF702FC0A4801884FF4C27028
:1080A000FFF7FCFB09E002F0EBFD45F6A5210620F9
:1080B000FFF7F4FB02F0E4FD00BF00BFBDE8F08174
:1080C0002C0000202E0000202DE9F04105460C4632
:1080D0001646094F4FF001082846FFF755FE0746A0
:1080E0002046FFF74AFE8046324641463846FFF7B3
:1080F00019FEBDE8F0810000000801402DE9F041C3
:1081000005460C46094E01274FF000082846FFF7A8
:108110003BFE06462046FFF730FE0746394630460E
:10812000FFF7EEFD80464046BDE8F08100080140C3
:108130002DE9F04105460C46094E01274FF0000895
:108140002846FFF721FE06462046FFF716FE0746A3
:1081500039463046FFF7DDFD80464046BDE8F081F8
:10816000000801402DE9FE4F04460D4616464FF02B
:10817000040ADFF8B4B04FF00108042001904FF07A
:108180000009032000900027082C03DA102D01DAE3
:10819000012E02DD0020BDE8FE8F1CB915B90020BC
:1081A00001F080FE032C05D1012D03D10121C8036C
:1081B000FFF75EFDB8F1100F02D14FF6FF7803E034
:1081C0002846FFF7DAFD804616B14FF0100A01E0AD
:1081D0004FF0040A072C04D14FF00009032000904F
:1081E00001E0A14600944F4618E03846FFF7CCFD69
:1081F00083463846FFF7B4FD01900121019801F054
:10820000FFFEADF808808DF80BA003208DF80A0062
:1082100002A95846FFF7A3FC781CC7B20098874212
:10822000E3DD0120B7E70000000801404CF6CC4038
:108230000149086070470000003000404AF6AA205B
:108240000149086070470000003000400149486063
:10825000704700000030004001498860704700000E
:1082600000300040014908607047000000300040C5
:1082700010B5FEF7D1FE1249487800221149FEF7E9
:10828000B7FE0F49887800220F49FEF7B1FE0C496E
:10829000C87800220D49FEF7ABFE09494878042151
:1082A000FEF708FF064988780421FEF703FF04491A
:1082B000C8780421FEF7FEFEFBF7F0FA10BD0000BF
:1082C0001E00002005BB00082DBA0008B5BB000841
:1082D00010B51A4800210160818081711C21184865
:1082E000FBF779F838211748FBF775F81449002097
:1082F000FFF78EFD1249091D0120FFF789FD104986
:1083000008310220FFF784FD0D490C310320FFF7EF
:108310007FFD0B4910310420FFF77AFD0849143125
:108320000520FFF775FD064918310620FFF770FD9F
:10833000034840690449086010BD00002004002083
:10834000B8230020802300202804002070B50021DD
:1083500000230F22C4780CB3164C246804F4E064A4
:10836000C4F5E064210AC1F10403CA40447804FA68
:1083700003F184781440214309010F4C0678A1557C
:10838000047804F01F050124AC4005786D114FF00E
:10839000E02606EB8505C5F8004109E0047804F005
:1083A0001F050124AC40054D0678761145F826409E
:1083B00070BD00000CED00E000E400E080E100E0B2
:1083C00002490143024A1160704700000000FA05AB
:1083D0000CED00E0024A0A400243024B1A6070476B
:1083E00080FFFF1F08ED00E010B5044621464AF665
:1083F000AA20FBF71FFB01200149087010BD0000F7
:10840000F003002038B5044606484470064800785A
:1084100001231A460C2100900448007800F0E3F88C
:1084200038BD0000820400206804002054040020AD
:10843000F7B588B00C46164600200790069006A8AF
:108440000090A3786278BDF82070F9B2380A01F084
:1084500085FA05461DB9BDF818000BB0F0BD2078AF
:108460008DF81C00BDF82000C0B2BDF81C10C1F38F
:1084700040112A7ACDE90306CDE90121BDF8220099
:10848000C0B20090A37862780920696800F0E6FA2B
:10849000E3E7F7B582B00C461646002700200190AE
:1084A00001A8009094F800C00CF01F036278BDF89A
:1084B00008C00CF0FF014FEA1C2001F04FFA0546FE
:1084C0001DB9BDF8040005B0F0BDBDF80A00C2B288
:1084D000BDF80800C1B2032000F057F80746207825
:1084E00000F01F026178A31C284601F0CBF9207828
:1084F00000F01F00297A4843801CC2B2334621464F
:10850000384600F09AF8BDF80400DCE7F7B582B011
:108510000C46164600270020019001A8009094F810
:1085200000C00CF01F036278BDF808C00CF0FF011A
:10853000BDF80AC00CF0FF0001F010FA05461DB9A5
:10854000BDF8040005B0F0BDBDF80A00C2B2BDF828
:108550000800C1B20A2000F018F80746207800F0A1
:108560001F026178A31C284601F08CF9207800F0E6
:108570001F00297A4843801CC2B233462146384640
:1085800000F05BF8BDF80400DCE7F8B506460C46E1
:10859000154600200090BDF8020020F46040ADF8C0
:1085A0000200BDF8020066F34C20ADF80200BDF8F1
:1085B000020020F48070ADF8020000F019FBBDF855
:1085C000021060F30701ADF80210BDF8000065F37A
:1085D0000F20ADF80000BDF8000064F30700ADF80F
:1085E00000000098F8BD2DE9F04786B005460E461C
:1085F00017469846DDF838900020059000F0F8FA0C
:10860000824605A843463A4631460090504601F05E
:10861000A5F9044624B9BDF8140006B0BDE8F087FA
:108620000021207A01AAA2E84302009543463A4677
:108630000620616800F012FAEFE72DE9FF410646D7
:108640000F46154698460024009600BF05E0395DA8
:108650000DF106000155601CC4B2AC42F7DB8DF889
:10866000055069464046FCF76FFF04B0BDE8F08155
:1086700001200A4908700A204870322048804FF4CF
:10868000FA7088801420C8804FF4FA7008814881FD
:10869000012008736420487370470000D423002031
:1086A000002100EB4002344B1B6803EBC202516017
:1086B00000EB4002304B1B6803EBC20251700022FA
:1086C00000EB40012C4B1B6803EBC1014A7200EB2D
:1086D0004001294B1B6803EBC1018A72002100EBAA
:1086E0004002254B1B6803EBC202D17200EB400233
:1086F000214B1B6803EBC2021173002200EB400107
:108700001D4B1B6803EBC1014A7300EB40011A4B80
:108710001B6803EBC1018A74002100EB4002164B79
:108720001B6803EBC202117200EB4002124B1B6884
:1087300003EBC202D173002200EB40010E4B1B6819
:1087400003EBC1010A74002100EB40020A4B1B68D5
:1087500003EBC2029182002200EB4001064B1B6832
:1087600003EBC101CA82002100EB4002024B1B68EF
:1087700003F83210704700003404002030B5024680
:108780000B464FF6FF700021002400BF10E0555C3F
:108790006840002408E010F0010F02D04AF2010501
:1087A00068404010651CECB2082CF4DB4D1CA9B2EB
:1087B0009942ECDB30BD2DE9F04105460F461646E7
:1087C0009846404600F03EF904460CB9BDE8F081F9
:1087D00025706770666000BFF8E7000010B50449B7
:1087E00008790023034A0421FFF7E5FF10BD0000CC
:1087F000AE0300201CD4000810B5044600BF274873
:108800000078002848D02648008800EB80002549E1
:108810000968B1EB400F2BD320480078012804D021
:10882000032809D0042815D10DE00420FFF7EAFD44
:1088300000201A4908700EE00620FFF7E3FD012032
:108840001649087007E00720FFF7DCFD01201349F7
:10885000087000E000BF00BF00F058F80F48007833
:1088600018B90021022001F0BFF800200D4908606E
:108870000C480068401C0B4908600B480068401C0D
:1088800009490860084600686421B0FBF1F201FB69
:10889000120008B900F03AF810BD00008204002070
:1088A00006D4000850040020600400207FB50C4668
:1088B00015461E46BDF802000D490870607820B1CB
:1088C000012807D004280FD109E02946204600F0EE
:1088D000E5FB0AE02946204600F0E2F905E02946DA
:1088E000204600F0B5F900E000BF00BF7FBD0000EA
:1088F0005404002010B5044600BF0120024908704E
:1089000000F004F810BD00008204002008B50548FE
:108910000078012300220C21009003480078FFF723
:1089200062FE08BD68040020540400200120704746
:10893000012070472DE9F04103460C460025601EDA
:10894000C6B20021002700BF2BE0B54225DCA819E4
:1089500000EBD07CCCF3470101EB810002EB8000FF
:108960004078984202D10846BDE8F08101EB8100D1
:1089700002EB80004078984202DA481CC5B20EE053
:1089800001EB810002EB80004078984207DD09B9D5
:10899000FF20E9E7481EC6B201E0FF20E4E7781CAB
:1089A000C7B204EBD47C4FF0010808EB6C0CBC455B
:1089B000CBDCFF20D8E7000070B504460D4600214F
:1089C0001E48006808B9FF2070BD002130E001EBAF
:1089D00041001A4E366806EBC000407BA04225D10C
:1089E00001EB4100154E366806EBC0004078A84206
:1089F0001CD101EB4100114E366806EBC000007A35
:108A0000904213D101EB41000C4E366806EBC000DA
:108A1000807A984208D001EB4100084E366806EB98
:108A2000C000C07A984201D10846CDE7481CC1B2C7
:108A3000034840788842CADCFF20C5E734040020A0
:108A4000D42300200146012901DD0020704702489F
:108A500000EBC100FAE70000700400202DE9F84F98
:108A600006460F4615469846DDE90BABDDF8289023
:108A70000024062000904048006810B90098BDE826
:108A8000F88F002471E004EB44003B49096811F8B9
:108A90003000002867D104EB44003749096801EB36
:108AA000C000476004EB44003349096801EBC00093
:108AB000467004EB44003049096801EBC000457280
:108AC00004EB44002C49096801EBC000857204EBFB
:108AD00044002949096801EBC000C57204EB440059
